:1000000012C02CC02BC02AC029C028C027C026C0BF
:1000100025C02BC123C023C055C020C01FC01EC097
:100020001DC01CC01BC011241FBECFE5D4E0DEBF25
:10003000CDBF10E0A0E6B0E0E0EAF5E002C0059038
:100040000D92AA36B107D9F710E0AAE6B0E001C0D8
:100050001D92AB3FB107E1F71CD2A0C2D1CF1F92D6
:100060000F920FB60F9211242F938F939F93EF93BC
:10007000FF939BB18091AC00803430F01092AC00C3
:1000800081E08093AD0014C09C7191F48091AB002D
:1000900090E02CB1FC01E659FF4F20832091AC0089
:1000A0002F5F2093AC0001968F7390708093AB000C
:1000B000FF91EF919F918F912F910F900FBE0F9015
:1000C0001F9018951F920F920FB60F9211242F9325
:1000D0008F939F93EF93FF938091EE0090E0FC014C
:1000E000E255FF4F20812CB92091F0002150209340
:1000F000F00001968F7390708093EE008091F00075
:10010000882309F45598FF91EF919F918F912F913A
:100110000F900FBE0F901F9018951BB888E18AB9F9
:1001200086E080BD10BC80E189B9599A1092AC007C
:100130008091AC008093AB008093AA001092F000F5
:100140008091F0008093EF008093EE00579A08951D
:10015000282F539902C084E008958091F0008034E4
:1001600010F081E008958091EF0090E0FC01E255ED
:10017000FF4F208301968F7390708093EF008091E2
:10018000F0008F5F8093F0008091F000882311F0E1
:10019000559A80E00895DC01549902C084E00895E6
:1001A0008091AD00882321F01092AD0083E0089586
:1001B0008091AC00882311F482E008958091AA0018
:1001C00090E0FC01E659FF4F20812C9301968F733C
:1001D00090708093AA008091AC0081508093AC0015
:1001E00080E00895CF93DF93EC0104C0B1DF882352
:1001F00021F4219688818823C9F7DF91CF91089552
:10020000EF92FF921F93DF93CF9300D000D000D0E6
:10021000CDB7DEB79C011E8215E07E010894E11C7B
:10022000F11C10C0C9016AE070E09BD1482FC901E0
:100230006AE070E096D19B011150F701E10FF11DCA
:10024000405D40832115310569F7C701810F911D7C
:10025000C9DF26960FB6F894DEBF0FBECDBFCF9193
:10026000DF911F91FF90EF9008951F920F920FB6AC
:100270000F9211248F939F9386E082BF8091F100AB
:100280009091F20001969093F2008093F1009F917B
:100290008F910F900FBE0F901F90189583E083BF32
:1002A00089B7816089BF08958FB7F8942091F100D4
:1002B0003091F2008FBFC9010895FC0114A610A669
:1002C0000895DC01FB0120E002C034962F5F80819D
:1002D0009181892B21F082819381892BB1F79996A5
:1002E0006C9399979A967C939A979B962C9380E01F
:1002F0000895AF92BF92CF92DF92EF92FF920F9349
:100300001F93CF93DF938C01DC019B96AC90B82EAA
:10031000C12EDD24EE24FF241BC0F801C1A5D2A507
:10032000CE0DDF1D688179818B2D9C2D2ED19C01F6
:1003300084E090E0E80EF91E232B49F4EA81FB816A
:10034000C8010796D80197966C91099503C0D3947C
:10035000DA1418F3DF91CF911F910F91FF90EF9076
:10036000DF90CF90BF90AF9008951F93DC019896D7
:100370008C919897813081F0813020F0823009F0A3
:1003800071C041C0683209F06FC081E098968C93CB
:10039000989716961C9268C016969C911697963060
:1003A00020F098961C9211E060C0603259F482E00F
:1003B00098968C939897FD01E90FF11D10829796FE
:1003C0001C9252C0693269F498961C929897FD016C
:1003D000E90FF11D108217961C921797CD0189DF46
:1003E00043C0992329F4623419F49C968C939C970A
:1003F00016968C911697FD01E80FF11D60838F5FB3
:1004000016968C9331C097968C919797803210F402
:1004100010E004C098961C92989712E09C968C91DC
:100420009C97882329F097968C9197978A3090F023
:1004300097968C919797693269F498961C92989741
:100440009C961C929C97FD01E80FF11D1782CD012F
:1004500050DF0BC0FD01E80FF11D67838F5F97969A
:100460008C9303C098961C9210E0812F1F910895E1
:10047000E091F300F091F400208181E090E00090A1
:10048000F90002C0880F991F0A94E2F728272083F9
:100490000895BF92CF92DF92EF92FF920F931F9336
:1004A000DF93CF93CDB7DEB7AE970FB6F894DEBF2C
:1004B0000FBECDBFC098B89A85E390E09093F4004A
:1004C0008093F30084E390E09093F6008093F5002E
:1004D00083E390E09093F8008093F7001092F90086
:1004E000A898A09AC198B998C19AC298BA9ADCDE25
:1004F00044EFE42E41E0F42EE80EF91E0EDECEDECF
:100500008E010E5F1F4FC801D8DEC80162E670E0A1
:10051000D8DE78946E010894C11CD11C8E010E5F48
:100520001F4F34E0B32EB19902C0C09801C0C09AE9
:10053000C60131DE882329F489810ADEC801698178
:1005400014DFB2DE8E199F0997FDEDCFADDE24EFEB
:10055000E22E21E0F22EE80EF91E88B38B2588BB2F
:10056000E2CFAA1BBB1B51E107C0AA1FBB1FA617E6
:10057000B70710F0A61BB70B881F991F5A95A9F74C
:1005800080959095BC01CD010895FB01DC018D9112
:10059000019080190110D9F3990B0895F894FFCFB9
:0A05A000790060003802000000003E
:00000001FF
