:1000000012C021C020C01FC01EC01DC01CC01BC00C
:100010001AC028C118C018C04AC015C014C013C0E7
:1000200012C011C010C011241FBECFE5D4E0DEBF46
:10003000CDBF10E0A0E6B0E001C01D92A93EB1071F
:10004000E1F738D16EC1DCCF1F920F920FB60F923D
:1000500011242F938F939F93EF93FF938BB1209154
:10006000A200203430F01092A20081E08093A3001F
:1000700014C08C7191F48091A1009CB1E82FF0E044
:10008000E05AFF4F90832F5F2093A2008F5F8093F1
:10009000A100803410F01092A100FF91EF919F9188
:1000A0008F912F910F900FBE0F901F9018951F9258
:1000B0000F920FB60F9211248F939F93EF93FF939C
:1000C0008091E400E82FF0E0EC55FF4F90819CB95F
:1000D0009091E60091509093E6008F5F8093E4004A
:1000E000803410F01092E400992309F45598FF91A0
:1000F000EF919F918F910F900FBE0F901F901895C9
:100100001BB888E18AB986E080BD10BC81E289B95C
:10011000599A1092A2001092A1001092A000109281
:10012000E6001092E5001092E400579A08958AB113
:10013000887008958AB180710895539A08955398EC
:100140000895549A089554980895282F539902C0F9
:1001500084E008959091E600903410F081E00895D5
:10016000F8948091E500E82FF0E0EC55FF4F2083F4
:100170009F5F9093E6008F5F8093E500803410F0DE
:100180001092E500559A789480E00895DC01549926
:1001900002C084E008958091A300882321F010928A
:1001A000A30083E008952091A200222311F482E0AD
:1001B0000895F8948091A000E82FF0E0E05AFF4FF6
:1001C00090819C9321502093A2008F5F8093A00088
:1001D000803410F01092A000789480E00895CF93BE
:1001E000DF93EC0104C0B1DF882321F421968881DC
:1001F0008823C9F7DF91CF910895EF92FF921F9363
:10020000DF93CF9300D000D000D0CDB7DEB79C01F4
:100210001E8215E07E010894E11CF11C10C0C9018A
:100220006AE070E06AD0482FC9016AE070E065D0EA
:100230009B011150F701E10FF11D405D4083211535
:10024000310569F7C701810F911DC9DF26960FB6E9
:10025000F894DEBF0FBECDBFCF91DF911F91FF900D
:10026000EF9008951F920F920FB60F9211248F9363
:100270009F9386E082BF8091E7009091E80001960D
:100280009093E8008093E7009F918F910F900FBEAD
:100290000F901F90189583E083BF89B7816089BF55
:1002A00008958FB7F8942091E7003091E8008FBF50
:1002B000C90108951F93CF93DF93C098B89AC1984E
:1002C000B998C19AC298BA9AECDFEC01CC50DE4FD3
:1002D000E2DF789414E0B19902C0C09801C0C09ADE
:1002E000E0DF8C1B9D0B97FDF6CF88B3812788BB81
:1002F000D8DFEC01CC50DE4FEECFAA1BBB1B51E187
:1003000007C0AA1FBB1FA617B70710F0A61BB70B85
:10031000881F991F5A95A9F780959095BC01CD012A
:060320000895F894FFCFE0
:00000001FF
