:1000000012C021C020C01FC01EC01DC01CC01BC00C
:100010001AC024C118C018C04AC015C014C013C0EB
:1000200012C011C010C011241FBECFE5D4E0DEBF46
:10003000CDBF10E0A0E6B0E001C01D92A93EB1071F
:10004000E1F734D17DC1DCCF1F920F920FB60F9232
:1000500011242F938F939F93EF93FF939BB18091E4
:10006000E200803430F01092E20081E08093E10001
:1000700014C09C7191F48091E30090E02CB1FC01DC
:10008000EF59FF4F20832091E2002F5F2093E20081
:1000900001968F7390708093E300FF91EF919F9191
:1000A0008F912F910F900FBE0F901F9018951F9258
:1000B0000F920FB60F9211242F938F939F93EF936C
:1000C000FF938091E60090E0FC01EF55FF4F208107
:1000D0002CB92091E40021502093E40001968F7305
:1000E00090708093E6008091E400882309F455988D
:1000F000FF91EF919F918F912F910F900FBE0F90D5
:100100001F9018951BB888E18AB986E080BD10BCA5
:1001100080E189B9599A1092E2008091E2008093BF
:10012000E300809360001092E4008091E4008093EB
:10013000E5008093E600579A0895282F539902C04E
:1001400084E008958091E400803410F081E0089507
:100150008091E50090E0FC01EF55FF4F2083019670
:100160008F7390708093E5009FB7F8948091E400BE
:100170008F5F8093E4009FBF559A80E00895DC0173
:10018000549902C084E008958091E100882321F011
:100190001092E10083E008958091E200882311F439
:1001A00082E00895E0916000F0E0EF59FF4F808118
:1001B0008C938091600090E001968F739070809393
:1001C00060009FB7F8948091E20081508093E20034
:1001D0009FBF80E00895CF93DF93EC0104C0ADDFB3
:1001E000882321F4219688818823C9F7DF91CF9154
:1001F0000895EF92FF921F93DF93CF9300D000D02A
:1002000000D0CDB7DEB79C011E8215E07E010894B8
:10021000E11CF11C10C0C9016AE070E07DD0482FDC
:10022000C9016AE070E078D09B011150F701E10F3D
:10023000F11D405D40832115310569F7C701810F2C
:10024000911DC9DF26960FB6F894DEBF0FBECDBF55
:10025000CF91DF911F91FF90EF9008951F920F9221
:100260000FB60F9211248F939F9386E082BF8091E7
:10027000E7009091E80001969093E8008093E700F2
:100280009F918F910F900FBE0F901F90189583E054
:1002900083BF89B7816089BF08958FB7F894209193
:1002A000E7003091E8008FBFC9010895DF92EF9217
:1002B000FF920F931F93DF93CF930F92CDB7DEB7CB
:1002C000C098B89AC198B998C19AC298BA9AE5DF0D
:1002D0008C010C501E4F16DFDADF78947E010894F3
:1002E000E11CF11C84E0D82EB19902C0C09801C075
:1002F000C09AC70144DF882311F489811EDFCDDF56
:10030000801B910B97FDF0CFC8DF8C010C501E4F66
:1003100088B38D2588BBE8CFAA1BBB1B51E107C062
:10032000AA1FBB1FA617B70710F0A61BB70B881F85
:10033000991F5A95A9F780959095BC01CD01089514
:04034000F894FFCF5F
:00000001FF
