:1000000012C021C020C01FC01EC01DC01CC01BC00C
:100010001AC020C118C018C04AC015C014C013C0EF
:1000200012C011C010C011241FBECFE5D4E0DEBF46
:10003000CDBF10E0A0E6B0E001C01D92A93EB1071F
:10004000E1F7F9D14BC2DCCF1F920F920FB60F929E
:1000500011242F938F939F93EF93FF939BB18091E4
:10006000A200803430F01092A20081E08093A300BF
:1000700014C09C7191F48091A10090E02CB1FC011E
:10008000E05AFF4F20832091A2002F5F2093A2000F
:1000900001968F7390708093A100FF91EF919F91D3
:1000A0008F912F910F900FBE0F901F9018951F9258
:1000B0000F920FB60F9211242F938F939F93EF936C
:1000C000FF938091E40090E0FC01EC55FF4F20810C
:1000D0002CB92091E60021502093E60001968F7301
:1000E00090708093E4008091E600882309F455988D
:1000F000FF91EF919F918F912F910F900FBE0F90D5
:100100001F9018951BB888E18AB986E080BD10BCA5
:1001100080E189B9599A1092A2008091A20080933F
:10012000A1008093A0001092E6008091E6008093E9
:10013000E5008093E400579A0895282F539902C050
:1001400084E008958091E600803410F081E0089505
:100150008091E50090E0FC01EC55FF4F2083019673
:100160008F7390708093E5008091E6008F5F80939D
:10017000E6008091E600882311F0559A80E008950A
:10018000DC01549902C084E008958091A300882383
:1001900021F01092A30083E008958091A2008823AB
:1001A00011F482E008958091A00090E0FC01E05AF3
:1001B000FF4F20812C9301968F7390708093A00045
:1001C0008091A20081508093A20080E00895CF9397
:1001D000DF93EC0104C0B1DF882321F421968881EC
:1001E0008823C9F7DF91CF910895EF92FF921F9373
:1001F000DF93CF9300D000D000D0CDB7DEB79C0105
:100200001E8215E07E010894E11CF11C10C0C9019A
:100210006AE070E046D1482FC9016AE070E041D140
:100220009B011150F701E10FF11D405D4083211545
:10023000310569F7C701810F911DC9DF26960FB6F9
:10024000F894DEBF0FBECDBFCF91DF911F91FF901D
:10025000EF9008951F920F920FB60F9211248F9373
:100260009F9386E082BF8091E7009091E80001961D
:100270009093E8008093E7009F918F910F900FBEBD
:100280000F901F90189583E083BF89B7816089BF65
:1002900008958FB7F8942091E7003091E8008FBF60
:1002A000C9010895FC0114A610A60895FC0172A7C7
:1002B00061A743A780E00895AF92BF92CF92DF92EB
:1002C000EF92FF920F931F93CF93DF938C01DC018A
:1002D0009B96AC90B82EC12EDD24EE24FF241BC0CB
:1002E000F801C1A5D2A5CE0DDF1D688179818B2DC6
:1002F0009C2DEBD09C0184E090E0E80EF91E232BAE
:1003000049F4EA81FB81C8010796D80197966C9160
:10031000099503C0D394DA1418F3DF91CF911F919C
:100320000F91FF90EF90DF90CF90BF90AF90089526
:100330001F93DC0198968C919897813081F08130E1
:1003400020F0823009F071C041C0683209F06FC0FE
:1003500081E098968C93989716961C9268C0169692
:100360009C911697963020F098961C9211E060C0F0
:10037000603259F482E098968C939897FD01E90FCA
:10038000F11D108297961C9252C0693269F49896BA
:100390001C929897FD01E90FF11D108217961C928F
:1003A0001797CD0189DF43C0992329F4623419F4EA
:1003B0009C968C939C9716968C911697FD01E80F4E
:1003C000F11D60838F5F16968C9331C097968C9148
:1003D0009797803210F410E004C098961C9298977A
:1003E00012E09C968C919C97882329F097968C918B
:1003F00097978A3090F097968C919797693269F425
:1004000098961C9298979C961C929C97FD01E80FD9
:10041000F11D1782CD0150DF0BC0FD01E80FF11D6A
:1004200067838F5F97968C9303C098961C9210E019
:10043000812F1F910895DF92EF92FF920F931F93E8
:10044000DF93CF930F92CDB7DEB7C098B89AC1981B
:10045000B998C19AC298BA9A1CDF8C010C501E4FF1
:1004600051DE11DF78947E010894E11CF11C84E0D8
:10047000D82EB19902C0C09801C0C09AC70180DED1
:10048000882311F4898159DE04DF801B910B97FDCD
:10049000F0CFFFDE8C010C501E4F88B38D2588BB3A
:1004A000E8CFAA1BBB1B51E107C0AA1FBB1FA617A1
:1004B000B70710F0A61BB70B881F991F5A95A9F70D
:1004C00080959095BC01CD010895FB01DC018D91D3
:1004D000019080190110D9F3990B0895F894FFCF7A
:00000001FF
