:1000000012C02CC02BC02AC029C028C027C026C0BF
:1000100054C12BC123C023C055C020C01FC01EC067
:100020001DC01CC01BC011241FBECFE5D4E0DEBF25
:10003000CDBF10E0A0E6B0E0E2E1F8E002C005903C
:100040000D92A237B107D9F711E0A2E7B0E001C0E5
:100050001D92A330B107E1F7BDD2D9C3D1CF1F9212
:100060000F920FB60F9211242F938F939F93EF93BC
:10007000FF939BB18091B400803430F01092B400B3
:1000800081E08093B50014C09C7191F48091B3001D
:1000900090E02CB1FC01EE58FF4F20832091B4007A
:1000A0002F5F2093B40001968F7390708093B300FC
:1000B000FF91EF919F918F912F910F900FBE0F9015
:1000C0001F9018951F920F920FB60F9211242F9325
:1000D0008F939F93EF93FF938091F60090E0FC0144
:1000E000EA54FF4F20812CB92091F8002150209331
:1000F000F80001968F7390708093F6008091F8005D
:10010000882309F45598FF91EF919F918F912F913A
:100110000F900FBE0F901F9018951BB888E18AB9F9
:1001200086E080BD10BC80E189B9599A1092B40074
:100130008091B4008093B3008093B2001092F800D5
:100140008091F8008093F7008093F600579A089505
:10015000282F539902C084E008958091F8008034DC
:1001600010F081E008958091F70090E0FC01EA54DE
:10017000FF4F208301968F7390708093F7008091DA
:10018000F8008F5F8093F8008091F800882311F0C9
:10019000559A80E00895DC01549902C084E00895E6
:1001A0008091B500882321F01092B50083E0089576
:1001B0008091B400882311F482E008958091B20008
:1001C00090E0FC01EE58FF4F20812C9301968F7335
:1001D00090708093B2008091B40081508093B400FD
:1001E00080E00895CF93DF93EC0104C0B1DF882352
:1001F00021F4219688818823C9F7DF91CF91089552
:10020000EF92FF921F93DF93CF9300D000D000D0E6
:10021000CDB7DEB79C011E8215E07E010894E11C7B
:10022000F11C10C0C9016AE070E05FD2482FC9011B
:100230006AE070E05AD29B011150F701E10FF11D05
:10024000405D40832115310569F7C701810F911D7C
:10025000C9DF26960FB6F894DEBF0FBECDBFCF9193
:10026000DF911F91FF90EF9008951F920F920FB6AC
:100270000F9211248F939F9386E082BF8091F900A3
:100280009091FA0001969093FA008093F9009F9163
:100290008F910F900FBE0F901F90189583E083BF32
:1002A00089B7816089BF08958FB7F8942091F900CC
:1002B0003091FA008FBFC90108951F920F920FB6B7
:1002C0000F9211242F933F934F935F936F937F93DC
:1002D0008F939F93AF93BF938091FF0090E001961F
:1002E00065E070E016D28093FF00882329F58AB577
:1002F0009BB54AB55BB52091FB003091FC00820FA5
:10030000931F841B950B9BBD8ABD8AB59BB548B5D1
:1003100059B52091FD003091FE00820F931F841B80
:10032000950B99BD88BD8FB580658FBD8FB58C60ED
:100330008FBD8FB58F7A8FBDBF91AF919F918F91F8
:100340007F916F915F914F913F912F910F900FBED1
:100350000F901F90189587B3866087BB80EA8FBD8A
:1003600081E08EBD89B7846089BF80EC9DE59BBD2F
:100370008ABD2FB7F89480EC9DE59093FC008093A4
:10038000FB002FBF2FB7F89480EC9DE59093FE0003
:100390008093FD002FBF08951F93182F9B01CB0161
:1003A000805F984D81529E4408F5B901882777FDFA
:1003B0008095982F20E43FE140E050E077D120E1A4
:1003C00037E240E050E0B8D12054324A112339F4EA
:1003D0008FB7F8943093FC002093FB0006C08FB7D2
:1003E000F8943093FE002093FD008FBF1F91089575
:1003F000DC01FB0120E002C034962F5F80819181F7
:10040000892B21F082819381892BB1F799966C9386
:1004100099979A967C939A979B962C9380E008954F
:100420000F931F938C01FC0110A675A764A73CDFF6
:10043000F80124A535A5280F391F37A726A71F9136
:100440000F910895AF92BF92CF92DF92EF92FF92F9
:100450000F931F93CF93DF938C01DC019B96AC909D
:10046000B82EC12EDD24EE24FF241BC0F801C1A547
:10047000D2A5CE0DDF1D688179818B2D9C2DB6D143
:100480009C0184E090E0E80EF91E232B49F4EA81F8
:10049000FB81C8010796D80197966C91099503C016
:1004A000D394DA1418F3DF91CF911F910F91FF903D
:1004B000EF90DF90CF90BF90AF900895FF920F9391
:1004C0001F93CF93DF93EC01F62E88A5882339F094
:1004D0000EA51FA5E9DE801B910B97FF18A688A526
:1004E0008130A9F0813020F0823009F05AC039C043
:1004F00088E2F81609F056C0D7DE2CA53DA5280FD6
:10050000391F3FA72EA781E088A71E824BC09E817E
:10051000963018F018A681E046C080E2F81641F443
:1005200082E088A7FE01E90FF11D10821FA23AC0E8
:1005300089E2F81639F418A6FE01E90FF11D1082C0
:100540001F821DC0B1DE2CA53DA5280F391F3FA776
:100550002EA78E81FE01E80FF11DF0828F5F8E8342
:1005600021C08FA1803218F018A682E01CC099E249
:10057000F91641F418A6FE01E80FF11D1782CE010D
:1005800061DF10C091DE2CA53DA5280F391F3FA7C4
:100590002EA78FA1FE01E80FF11DF7828F5F8FA3B9
:1005A00001C018A680E0DF91CF911F910F91FF90BD
:1005B0000895E0910001F0910101208181E090E037
:1005C0000090020102C0880F991F0A94E2F72827C1
:1005D00020830895BF92CF92DF92EF92FF920F9304
:1005E0001F93DF93CF93CDB7DEB7E1970FB6F894A3
:1005F000DEBF0FBECDBFF89485E390E0909301017C
:100600008093000110920201A898A09AA898C5981A
:10061000BD9AC59849DE44EFE42E41E0F42EE80E81
:10062000F91E99DE7ADD3ADE8E010E5F1F4FC8019A
:1006300062E070E0F5DEC80165E670E0D9DE2DE02D
:1006400088E190E00FB6F894A89581BD0FBE21BD5A
:1006500078946E010894C11CD11C8E010E5F1F4F4F
:1006600030E2B32EC60197DD882329F4898170DD3D
:10067000C801698123DF18DE8E199F0997FD0AC022
:1006800013DE24EFE22E21E0F22EE80EF91E88B3ED
:100690008B2588BBA895E6CF8CD0BC0181E07CDEA1
:1006A000089587D0BC0180E077DE0895629FD00175
:1006B000739FF001829FE00DF11D649FE00DF11D1D
:1006C000929FF00D839FF00D749FF00D659FF00DCC
:1006D0009927729FB00DE11DF91F639FB00DE11DB9
:1006E000F91FBD01CF0111240895AA1BBB1B51E1C5
:1006F00007C0AA1FBB1FA617B70710F0A61BB70B92
:10070000881F991F5A95A9F780959095BC01CD0136
:10071000089597FB092E07260AD077FD04D0E5DF60
:1007200006D000201AF4709561957F4F0895F6F772
:10073000909581959F4F089597FB092E05260ED021
:1007400057FD04D014D00AD0001C38F450954095C1
:10075000309521953F4F4F4F5F4F0895F6F7909595
:100760008095709561957F4F8F4F9F4F0895A1E2BF
:100770001A2EAA1BBB1BFD010DC0AA1FBB1FEE1F1B
:10078000FF1FA217B307E407F50720F0A21BB30B66
:10079000E40BF50B661F771F881F991F1A9469F7E2
:1007A00060957095809590959B01AC01BD01CF013E
:1007B0000895FC0188279927E89421912032E9F3D4
:1007C000293010F02E30C8F32B3239F02D3231F4AD
:1007D000689403C014D0820F911D219120532A30B8
:1007E000C8F31EF4909581959F4F0895FB01DC019D
:1007F0008D91019080190110D9F3990B08957AE039
:10080000979F902D879F802D910D11240895F89426
:02081000FFCF18
:1008120079007330006000D90262005103000000C9
:020822000000D4
:00000001FF
