:1000000012C02CC02BC02AC029C028C027C026C0BF
:1000100025C02BC123C023C055C020C01FC01EC097
:100020001DC01CC01BC011241FBECFE5D4E0DEBF25
:10003000CDBF10E0A0E6B0E0E6E4F6E002C0059037
:100040000D92AA36B107D9F710E0AAE6B0E001C0D8
:100050001D92A63FB107E1F72BD2F3C2D1CF1F9279
:100060000F920FB60F9211242F938F939F93EF93BC
:10007000FF939BB18091AC00803430F01092AC00C3
:1000800081E08093AD0014C09C7191F48091AB002D
:1000900090E02CB1FC01E659FF4F20832091AC0089
:1000A0002F5F2093AC0001968F7390708093AB000C
:1000B000FF91EF919F918F912F910F900FBE0F9015
:1000C0001F9018951F920F920FB60F9211242F9325
:1000D0008F939F93EF93FF938091EE0090E0FC014C
:1000E000E255FF4F20812CB92091F0002150209340
:1000F000F00001968F7390708093EE008091F00075
:10010000882309F45598FF91EF919F918F912F913A
:100110000F900FBE0F901F9018951BB888E18AB9F9
:1001200086E080BD10BC80E189B9599A1092AC007C
:100130008091AC008093AB008093AA001092F000F5
:100140008091F0008093EF008093EE00579A08951D
:10015000282F539902C084E008958091F0008034E4
:1001600010F081E008958091EF0090E0FC01E255ED
:10017000FF4F208301968F7390708093EF008091E2
:10018000F0008F5F8093F0008091F000882311F0E1
:10019000559A80E00895DC01549902C084E00895E6
:1001A0008091AD00882321F01092AD0083E0089586
:1001B0008091AC00882311F482E008958091AA0018
:1001C00090E0FC01E659FF4F20812C9301968F733C
:1001D00090708093AA008091AC0081508093AC0015
:1001E00080E00895CF93DF93EC0104C0B1DF882352
:1001F00021F4219688818823C9F7DF91CF91089552
:10020000EF92FF921F93DF93CF9300D000D000D0E6
:10021000CDB7DEB79C011E8215E07E010894E11C7B
:10022000F11C10C0C9016AE070E0CCD1482FC901AF
:100230006AE070E0C7D19B011150F701E10FF11D99
:10024000405D40832115310569F7C701810F911D7C
:10025000C9DF26960FB6F894DEBF0FBECDBFCF9193
:10026000DF911F91FF90EF9008951F920F920FB6AC
:100270000F9211248F939F9386E082BF8091F100AB
:100280009091F20001969093F2008093F1009F917B
:100290008F910F900FBE0F901F90189583E083BF32
:1002A00089B7816089BF08958FB7F8942091F100D4
:1002B0003091F2008FBFC9010895DC01FB0120E0FD
:1002C00002C034962F5F80819181892B21F0828139
:1002D0009381892BB1F799966C9399979A967C9311
:1002E0009A979B962C9380E008950F931F938C010F
:1002F000FC0110A680E090E028EE33E040E050E002
:1003000042D174D1F80135A724A7CEDFF80124A586
:1003100035A5280F391F37A726A71F910F910895DC
:10032000AF92BF92CF92DF92EF92FF920F931F9303
:10033000CF93DF938C01DC019B96AC90B82EC12E3D
:10034000DD24EE24FF241BC0F801C1A5D2A5CE0DEB
:10035000DF1D688179818B2D9C2D6AD19C0184E001
:1003600090E0E80EF91E232B49F4EA81FB81C801D5
:100370000796D80197966C91099503C0D394DA1427
:1003800018F3DF91CF911F910F91FF90EF90DF90C5
:10039000CF90BF90AF900895FF920F931F93CF938C
:1003A000DF93EC01F62E88A5882339F00EA51FA552
:1003B0007BDF801B910B97FF18A688A58130A9F0E1
:1003C000813020F0823009F05AC039C088E2F81636
:1003D00009F056C069DF2CA53DA5280F391F3FA79E
:1003E0002EA781E088A71E824BC09E81963018F010
:1003F00018A681E046C080E2F81641F482E088A7A2
:10040000FE01E90FF11D10821FA23AC089E2F81621
:1004100039F418A6FE01E90FF11D10821F821DC0DC
:1004200043DF2CA53DA5280F391F3FA72EA78E819E
:10043000FE01E80FF11DF0828F5F8E8321C08FA136
:10044000803218F018A682E01CC099E2F91641F437
:1004500018A6FE01E80FF11D1782CE0161DF10C062
:1004600023DF2CA53DA5280F391F3FA72EA78FA15D
:10047000FE01E80FF11DF7828F5F8FA301C018A660
:1004800080E0DF91CF911F910F91FF900895E0914F
:10049000F300F091F400208181E090E00090F500FD
:1004A00002C0880F991F0A94E2F728272083089535
:1004B000BF92CF92DF92EF92FF920F931F93DF9341
:1004C000CF93CDB7DEB7E1970FB6F894DEBF0FBE7E
:1004D000CDBFC098B89AC09885E390E09093F4009F
:1004E0008093F3001092F500A898A09AA898C1985C
:1004F000B998C19AC298BA9AC298D6DE44EFE42E4F
:1005000041E0F42EE80EF91E08DEC8DE8E010E5F13
:100510001F4FC80162E070E0E8DEC80162E670E0EB
:10052000CCDE2DE088E190E00FB6F894A89581BD6F
:100530000FBE21BD78946E010894C11CD11C8E01A0
:100540000E5F1F4F34E0B32EB19902C0C09801C0B6
:10055000C09AC60120DE882329F48981F9DDC8010B
:1005600069811ADFA1DE8E199F0997FD0AC09CDE02
:1005700024EFE22E21E0F22EE80EF91E88B38B253F
:1005800088BBA895E1CF629FD001739FF001829F45
:10059000E00DF11D649FE00DF11D929FF00D839F12
:1005A000F00D749FF00D659FF00D9927729FB00DAF
:1005B000E11DF91F639FB00DE11DF91FBD01CF01C2
:1005C00011240895AA1BBB1B51E107C0AA1FBB1F22
:1005D000A617B70710F0A61BB70B881F991F5A95CF
:1005E000A9F780959095BC01CD010895A1E21A2E3E
:1005F000AA1BBB1BFD010DC0AA1FBB1FEE1FFF1FC7
:10060000A217B307E407F50720F0A21BB30BE40B16
:10061000F50B661F771F881F991F1A9469F760955D
:100620007095809590959B01AC01BD01CF01089517
:10063000FB01DC018D91019080190110D9F3990B18
:060640000895F894FFCFBD
:0A0646007900600047020000000088
:00000001FF
