:1000000012C02CC02BC02AC029C028C027C026C0BF
:1000100025C02BC123C023C055C020C01FC01EC097
:100020001DC01CC01BC011241FBECFE5D4E0DEBF25
:10003000CDBF10E0A0E6B0E0EEE5F5E002C005902F
:100040000D92AA36B107D9F710E0AAE6B0E001C0D8
:100050001D92AB3FB107E1F7FBD17FC2D1CF1F9219
:100060000F920FB60F9211242F938F939F93EF93BC
:10007000FF939BB18091AC00803430F01092AC00C3
:1000800081E08093AD0014C09C7191F48091AB002D
:1000900090E02CB1FC01E659FF4F20832091AC0089
:1000A0002F5F2093AC0001968F7390708093AB000C
:1000B000FF91EF919F918F912F910F900FBE0F9015
:1000C0001F9018951F920F920FB60F9211242F9325
:1000D0008F939F93EF93FF938091EE0090E0FC014C
:1000E000E255FF4F20812CB92091F0002150209340
:1000F000F00001968F7390708093EE008091F00075
:10010000882309F45598FF91EF919F918F912F913A
:100110000F900FBE0F901F9018951BB888E18AB9F9
:1001200086E080BD10BC80E189B9599A1092AC007C
:100130008091AC008093AB008093AA001092F000F5
:100140008091F0008093EF008093EE00579A08951D
:10015000282F539902C084E008958091F0008034E4
:1001600010F081E008958091EF0090E0FC01E255ED
:10017000FF4F208301968F7390708093EF008091E2
:10018000F0008F5F8093F0008091F000882311F0E1
:10019000559A80E00895DC01549902C084E00895E6
:1001A0008091AD00882321F01092AD0083E0089586
:1001B0008091AC00882311F482E008958091AA0018
:1001C00090E0FC01E659FF4F20812C9301968F733C
:1001D00090708093AA008091AC0081508093AC0015
:1001E00080E00895CF93DF93EC0104C0B1DF882352
:1001F00021F4219688818823C9F7DF91CF91089552
:10020000EF92FF921F93DF93CF9300D000D000D0E6
:10021000CDB7DEB79C011E8215E07E010894E11C7B
:10022000F11C10C0C9016AE070E07AD1482FC90101
:100230006AE070E075D19B011150F701E10FF11DEB
:10024000405D40832115310569F7C701810F911D7C
:10025000C9DF26960FB6F894DEBF0FBECDBFCF9193
:10026000DF911F91FF90EF9008951F920F920FB6AC
:100270000F9211248F939F9386E082BF8091F100AB
:100280009091F20001969093F2008093F1009F917B
:100290008F910F900FBE0F901F90189583E083BF32
:1002A00089B7816089BF08958FB7F8942091F100D4
:1002B0003091F2008FBFC9010895FC0110A6089586
:1002C000DC01FB0120E002C034962F5F8081918128
:1002D000892B21F082819381892BB1F799966C93B8
:1002E00099979A967C939A979B962C9380E0089581
:1002F000AF92BF92CF92DF92EF92FF920F931F9334
:10030000CF93DF938C01DC019B96AC90B82EC12E6D
:10031000DD24EE24FF241BC0F801C1A5D2A5CE0D1B
:10032000DF1D688179818B2D9C2D0ED19C0184E08D
:1003300090E0E80EF91E232B49F4EA81FB81C80105
:100340000796D80197966C91099503C0D394DA1457
:1003500018F3DF91CF911F910F91FF90EF90DF90F5
:10036000CF90BF90AF900895DC0198968C919897AC
:10037000813081F0813020F0823009F054C035C0E6
:10038000683209F04EC081E098968C939897169643
:100390001C9247C016969C911697963020F098961E
:1003A0001C9281E00895603259F482E098968C9313
:1003B0009897FD01E90FF11D108297961C9231C0AC
:1003C000E92FF0E0693251F498961C929897EA0F61
:1003D000FB1F108217961C9217971AC0EA0FFB1F7B
:1003E00060839F5F16969C931CC097968C919797FD
:1003F000803220F098961C9282E00895E82FF0E079
:10040000693249F498961C929897EA0FFB1F17825D
:10041000CD016EDF06C0EA0FFB1F67838F5F9796E3
:100420008C9380E0089598961C9280E00895E09166
:10043000F300F091F400208181E090E00090F90059
:1004400002C0880F991F0A94E2F728272083089595
:10045000BF92CF92DF92EF92FF920F931F93DF93A1
:10046000CF93CDB7DEB7AD970FB6F894DEBF0FBE12
:10047000CDBFC098B89A85E390E09093F400809344
:10048000F30084E390E09093F6008093F50083E31B
:1004900090E09093F8008093F7001092F900A898EC
:1004A000A09AC198B998C19AC298BA9AFDDE44EF51
:1004B000E42E41E0F42EE80EF91E2FDEEFDE8E0171
:1004C0000E5F1F4FC801F9DEC80162E670E0F8DE7A
:1004D00078946E010894C11CD11C8E010E5F1F4FD1
:1004E00034E0B32EB19902C0C09801C0C09AC601D1
:1004F00052DE882329F489812BDEC801698134DF2B
:10050000D3DE8E199F0997FDEDCFCEDE24EFE22ECC
:1005100021E0F22EE80EF91E88B38B2588BBE2CFCE
:10052000AA1BBB1B51E107C0AA1FBB1FA617B70719
:1005300010F0A61BB70B881F991F5A95A9F7809535
:100540009095BC01CD010895FB01DC018D910190D6
:0E05500080190110D9F3990B0895F894FFCF8C
:0A055E0079006000170200000000A1
:00000001FF
