:1000000012C021C020C01FC01EC01DC01CC01BC00C
:100010001AC01AC018C017C016C015C014C013C02B
:1000200012C011C010C011241FBECFE5D4E0DEBF46
:10003000CDBF10E0A0E6B0E001C01D92A236B1072E
:10004000E1F72AD04CC0DCCF1F920F920FB60F926F
:1000500011248F939F9386E082BF809160009091DE
:100060006100019690936100809360009F918F9151
:100070000F900FBE0F901F90189583E083BF89B734
:10008000816089BF08958FB7F89420916000309106
:1000900061008FBFC90108951F93CF93DF93C0986C
:1000A000B89AC198B998C19AC298BA9AECDFEC0193
:1000B000CC50DE4FE2DF789414E0B19902C0C098D2
:1000C00001C0C09AE0DF8C1B9D0B97FDF6CF88B373
:1000D000812788BBD8DFEC01CC50DE4FEECFF894FF
:0200E000FFCF50
:00000001FF
